{
  "abi": [
    {
      "inputs": [
        {
          "internalType": "address",
          "name": "_dappTokenAddress",
          "type": "address"
        }
      ],
      "stateMutability": "nonpayable",
      "type": "constructor"
    },
    {
      "anonymous": false,
      "inputs": [
        {
          "indexed": true,
          "internalType": "address",
          "name": "previousOwner",
          "type": "address"
        },
        {
          "indexed": true,
          "internalType": "address",
          "name": "newOwner",
          "type": "address"
        }
      ],
      "name": "OwnershipTransferred",
      "type": "event"
    },
    {
      "inputs": [
        {
          "internalType": "address",
          "name": "_token",
          "type": "address"
        }
      ],
      "name": "addAllowedTokens",
      "outputs": [],
      "stateMutability": "nonpayable",
      "type": "function"
    },
    {
      "inputs": [
        {
          "internalType": "uint256",
          "name": "",
          "type": "uint256"
        }
      ],
      "name": "allowedTokens",
      "outputs": [
        {
          "internalType": "address",
          "name": "",
          "type": "address"
        }
      ],
      "stateMutability": "view",
      "type": "function"
    },
    {
      "inputs": [],
      "name": "dappToken",
      "outputs": [
        {
          "internalType": "contract IERC20",
          "name": "",
          "type": "address"
        }
      ],
      "stateMutability": "view",
      "type": "function"
    },
    {
      "inputs": [
        {
          "internalType": "address",
          "name": "_token",
          "type": "address"
        }
      ],
      "name": "getTokenValue",
      "outputs": [
        {
          "internalType": "uint256",
          "name": "",
          "type": "uint256"
        },
        {
          "internalType": "uint256",
          "name": "",
          "type": "uint256"
        }
      ],
      "stateMutability": "view",
      "type": "function"
    },
    {
      "inputs": [
        {
          "internalType": "address",
          "name": "_user",
          "type": "address"
        },
        {
          "internalType": "address",
          "name": "_token",
          "type": "address"
        }
      ],
      "name": "getUserSingleTokenValue",
      "outputs": [
        {
          "internalType": "uint256",
          "name": "",
          "type": "uint256"
        }
      ],
      "stateMutability": "view",
      "type": "function"
    },
    {
      "inputs": [
        {
          "internalType": "address",
          "name": "_user",
          "type": "address"
        }
      ],
      "name": "getUserTotalValue",
      "outputs": [
        {
          "internalType": "uint256",
          "name": "",
          "type": "uint256"
        }
      ],
      "stateMutability": "view",
      "type": "function"
    },
    {
      "inputs": [],
      "name": "issueTokens",
      "outputs": [],
      "stateMutability": "nonpayable",
      "type": "function"
    },
    {
      "inputs": [],
      "name": "length",
      "outputs": [
        {
          "internalType": "uint256",
          "name": "",
          "type": "uint256"
        }
      ],
      "stateMutability": "view",
      "type": "function"
    },
    {
      "inputs": [],
      "name": "owner",
      "outputs": [
        {
          "internalType": "address",
          "name": "",
          "type": "address"
        }
      ],
      "stateMutability": "view",
      "type": "function"
    },
    {
      "inputs": [],
      "name": "renounceOwnership",
      "outputs": [],
      "stateMutability": "nonpayable",
      "type": "function"
    },
    {
      "inputs": [
        {
          "internalType": "address",
          "name": "_token",
          "type": "address"
        },
        {
          "internalType": "address",
          "name": "_priceFeed",
          "type": "address"
        }
      ],
      "name": "setPriceFeedContract",
      "outputs": [],
      "stateMutability": "nonpayable",
      "type": "function"
    },
    {
      "inputs": [
        {
          "internalType": "address",
          "name": "",
          "type": "address"
        },
        {
          "internalType": "address",
          "name": "",
          "type": "address"
        }
      ],
      "name": "stakeBalance",
      "outputs": [
        {
          "internalType": "uint256",
          "name": "",
          "type": "uint256"
        }
      ],
      "stateMutability": "view",
      "type": "function"
    },
    {
      "inputs": [
        {
          "internalType": "uint256",
          "name": "_amount",
          "type": "uint256"
        },
        {
          "internalType": "address",
          "name": "_token",
          "type": "address"
        }
      ],
      "name": "stakeTokens",
      "outputs": [],
      "stateMutability": "nonpayable",
      "type": "function"
    },
    {
      "inputs": [
        {
          "internalType": "uint256",
          "name": "",
          "type": "uint256"
        }
      ],
      "name": "stakers",
      "outputs": [
        {
          "internalType": "address",
          "name": "",
          "type": "address"
        }
      ],
      "stateMutability": "view",
      "type": "function"
    },
    {
      "inputs": [
        {
          "internalType": "address",
          "name": "_token",
          "type": "address"
        }
      ],
      "name": "tokenIsAllowed",
      "outputs": [
        {
          "internalType": "bool",
          "name": "",
          "type": "bool"
        }
      ],
      "stateMutability": "view",
      "type": "function"
    },
    {
      "inputs": [
        {
          "internalType": "address",
          "name": "",
          "type": "address"
        }
      ],
      "name": "tokenPriceFeedMapping",
      "outputs": [
        {
          "internalType": "address",
          "name": "",
          "type": "address"
        }
      ],
      "stateMutability": "view",
      "type": "function"
    },
    {
      "inputs": [
        {
          "internalType": "address",
          "name": "newOwner",
          "type": "address"
        }
      ],
      "name": "transferOwnership",
      "outputs": [],
      "stateMutability": "nonpayable",
      "type": "function"
    },
    {
      "inputs": [
        {
          "internalType": "address",
          "name": "",
          "type": "address"
        }
      ],
      "name": "uniqueTokensStaked",
      "outputs": [
        {
          "internalType": "uint256",
          "name": "",
          "type": "uint256"
        }
      ],
      "stateMutability": "view",
      "type": "function"
    },
    {
      "inputs": [
        {
          "internalType": "address",
          "name": "_token",
          "type": "address"
        }
      ],
      "name": "unstakeTokens",
      "outputs": [],
      "stateMutability": "nonpayable",
      "type": "function"
    }
  ],
  "bytecode": "608060405260015460025534801561001657600080fd5b5060405161113c38038061113c833981016040819052610035916100b3565b61003e33610063565b600780546001600160a01b0319166001600160a01b03929092169190911790556100e3565b600080546001600160a01b038381166001600160a01b0319831681178455604051919092169283917f8be0079c531659141344cd1fd0a4f28419497f9722a3daafe3b4186f6b6457e09190a35050565b6000602082840312156100c557600080fd5b81516001600160a01b03811681146100dc57600080fd5b9392505050565b61104a806100f26000396000f3fe608060405234801561001057600080fd5b50600436106101215760003560e01c8063657d396c116100ad578063b83e023411610071578063b83e023414610269578063dd5b846714610289578063f1c5d6c2146102ac578063f2fde38b146102d4578063fd5e6dd1146102e757600080fd5b8063657d396c146101ff578063715018a61461022a578063877dd39d146102325780638da5cb5b14610245578063af3f5e221461025657600080fd5b806327927b3e116100f457806327927b3e1461017d5780632d1ad8b8146101be5780635e5f2e26146101d15780635eb186f8146101e457806360ab5852146101f757600080fd5b80630bea440d14610126578063171e44ea1461013b5780631f7b6d321461014e578063276b11da1461016a575b600080fd5b610139610134366004610cf8565b6102fa565b005b610139610149366004610d24565b610535565b61015760025481565b6040519081526020015b60405180910390f35b610157610178366004610d46565b6105b0565b6101a661018b366004610d24565b6005602052600090815260409020546001600160a01b031681565b6040516001600160a01b039091168152602001610161565b6101396101cc366004610d24565b610637565b6101a66101df366004610d70565b610770565b6007546101a6906001600160a01b031681565b61013961079a565b61015761020d366004610d46565b600360209081526000928352604080842090915290825290205481565b6101396108a6565b610139610240366004610d46565b6108dc565b6000546001600160a01b03166101a6565b610157610264366004610d24565b610934565b610157610277366004610d24565b60046020526000908152604090205481565b61029c610297366004610d24565b6109f0565b6040519015158152602001610161565b6102bf6102ba366004610d24565b610a5a565b60408051928352602083019190915201610161565b6101396102e2366004610d24565b610b79565b6101a66102f5366004610d70565b610c11565b6000821161034f5760405162461bcd60e51b815260206004820152601a60248201527f416d6f756e74206d757374206265206d6f7265207468616e203000000000000060448201526064015b60405180910390fd5b610358816109f0565b6103a45760405162461bcd60e51b815260206004820152601e60248201527f546f6b656e2069732063757272656e746c79206e6f7420616c6c6f77656400006044820152606401610346565b6103ad816109f0565b6103f95760405162461bcd60e51b815260206004820152601e60248201527f546f6b656e2069732063757272656e746c79206e6f7420616c6c6f77656400006044820152606401610346565b6040516323b872dd60e01b8152336004820152306024820152604481018390526001600160a01b038216906323b872dd90606401602060405180830381600087803b15801561044757600080fd5b505af115801561045b573d6000803e3d6000fd5b505050506040513d601f19601f8201168201806040525081019061047f9190610d89565b5061048a3382610c21565b6001600160a01b03811660009081526003602090815260408083203384529091529020546104b9908390610dc1565b6001600160a01b03821660009081526003602090815260408083203384528252808320939093556004905220546001141561053157600680546001810182556000919091527ff652222313e28459528d920b65115c16c04f3efc82aaedc97be59f3f377c0d3f0180546001600160a01b031916331790555b5050565b6000546001600160a01b0316331461055f5760405162461bcd60e51b815260040161034690610dd9565b6001805480820182556000919091527fb10e2d527612073b26eecdfd717e6a320cf44b4afac2b0732d9fcbe2b7fa0cf60180546001600160a01b0319166001600160a01b0392909216919091179055565b6001600160a01b0382166000908152600460205260408120546105d557506000610631565b6000806105e184610a5a565b90925090506105f181600a610ef2565b6001600160a01b038086166000908152600360209081526040808320938a1683529290522054610622908490610efe565b61062c9190610f1d565b925050505b92915050565b6001600160a01b0381166000908152600360209081526040808320338452909152902054806106a85760405162461bcd60e51b815260206004820152601b60248201527f5374616b696e672062616c616e63652063616e6e6f74206265203000000000006044820152606401610346565b6001600160a01b038216600081815260036020908152604080832033808552925280832092909255905163a9059cbb60e01b815260048101919091526024810183905263a9059cbb90604401602060405180830381600087803b15801561070e57600080fd5b505af1158015610722573d6000803e3d6000fd5b505050506040513d601f19601f820116820180604052508101906107469190610d89565b50336000908152600460205260408120805460019290610767908490610f3f565b90915550505050565b6001818154811061078057600080fd5b6000918252602090912001546001600160a01b0316905081565b6000546001600160a01b031633146107c45760405162461bcd60e51b815260040161034690610dd9565b60005b6006548110156108a3576000600682815481106107e6576107e6610f56565b60009182526020822001546001600160a01b0316915061080582610934565b60075460405163a9059cbb60e01b81526001600160a01b0385811660048301526024820184905292935091169063a9059cbb90604401602060405180830381600087803b15801561085557600080fd5b505af1158015610869573d6000803e3d6000fd5b505050506040513d601f19601f8201168201806040525081019061088d9190610d89565b505050808061089b90610f6c565b9150506107c7565b50565b6000546001600160a01b031633146108d05760405162461bcd60e51b815260040161034690610dd9565b6108da6000610c8c565b565b6000546001600160a01b031633146109065760405162461bcd60e51b815260040161034690610dd9565b6001600160a01b03918216600090815260056020526040902080546001600160a01b03191691909216179055565b6001600160a01b03811660009081526004602052604081205461098c5760405162461bcd60e51b815260206004820152601060248201526f139bc81d1bdad95b9cc81cdd185ad95960821b6044820152606401610346565b6000805b6001548110156109e9576109cb84600183815481106109b1576109b1610f56565b6000918252602090912001546001600160a01b03166105b0565b6109d59083610dc1565b9150806109e181610f6c565b915050610990565b5092915050565b6000805b600154811015610a5157826001600160a01b031660018281548110610a1b57610a1b610f56565b6000918252602090912001546001600160a01b03161415610a3f5750600192915050565b80610a4981610f6c565b9150506109f4565b50600092915050565b6001600160a01b03808216600090815260056020526040808220548151633fabe5a360e21b815291519293849391169182918491839163feaf968c9160048082019260a092909190829003018186803b158015610ab657600080fd5b505afa158015610aca573d6000803e3d6000fd5b505050506040513d601f19601f82011682018060405250810190610aee9190610fa1565b5050509150506000826001600160a01b031663313ce5676040518163ffffffff1660e01b815260040160206040518083038186803b158015610b2f57600080fd5b505afa158015610b43573d6000803e3d6000fd5b505050506040513d601f19601f82011682018060405250810190610b679190610ff1565b919760ff909216965090945050505050565b6000546001600160a01b03163314610ba35760405162461bcd60e51b815260040161034690610dd9565b6001600160a01b038116610c085760405162461bcd60e51b815260206004820152602660248201527f4f776e61626c653a206e6577206f776e657220697320746865207a65726f206160448201526564647265737360d01b6064820152608401610346565b6108a381610c8c565b6006818154811061078057600080fd5b6001600160a01b03808216600090815260036020908152604080832093861683529290522054610531576001600160a01b038216600090815260046020526040902054610c6f906001610dc1565b6001600160a01b0383166000908152600460205260409020555050565b600080546001600160a01b038381166001600160a01b0319831681178455604051919092169283917f8be0079c531659141344cd1fd0a4f28419497f9722a3daafe3b4186f6b6457e09190a35050565b80356001600160a01b0381168114610cf357600080fd5b919050565b60008060408385031215610d0b57600080fd5b82359150610d1b60208401610cdc565b90509250929050565b600060208284031215610d3657600080fd5b610d3f82610cdc565b9392505050565b60008060408385031215610d5957600080fd5b610d6283610cdc565b9150610d1b60208401610cdc565b600060208284031215610d8257600080fd5b5035919050565b600060208284031215610d9b57600080fd5b81518015158114610d3f57600080fd5b634e487b7160e01b600052601160045260246000fd5b60008219821115610dd457610dd4610dab565b500190565b6020808252818101527f4f776e61626c653a2063616c6c6572206973206e6f7420746865206f776e6572604082015260600190565b600181815b80851115610e49578160001904821115610e2f57610e2f610dab565b80851615610e3c57918102915b93841c9390800290610e13565b509250929050565b600082610e6057506001610631565b81610e6d57506000610631565b8160018114610e835760028114610e8d57610ea9565b6001915050610631565b60ff841115610e9e57610e9e610dab565b50506001821b610631565b5060208310610133831016604e8410600b8410161715610ecc575081810a610631565b610ed68383610e0e565b8060001904821115610eea57610eea610dab565b029392505050565b6000610d3f8383610e51565b6000816000190483118215151615610f1857610f18610dab565b500290565b600082610f3a57634e487b7160e01b600052601260045260246000fd5b500490565b600082821015610f5157610f51610dab565b500390565b634e487b7160e01b600052603260045260246000fd5b6000600019821415610f8057610f80610dab565b5060010190565b805169ffffffffffffffffffff81168114610cf357600080fd5b600080600080600060a08688031215610fb957600080fd5b610fc286610f87565b9450602086015193506040860151925060608601519150610fe560808701610f87565b90509295509295909350565b60006020828403121561100357600080fd5b815160ff81168114610d3f57600080fdfea264697066735822122076b678885daba43cb57237fa45447aeed9d5d61e4c426bdc1d9235d7bcafd8a064736f6c63430008090033",
  "bytecodeSha1": "7bff80501b55024b864d50acb33c4c014bf05359",
  "compiler": {
    "evm_version": "istanbul",
    "optimizer": {
      "enabled": true,
      "runs": 200
    },
    "version": "0.8.9+commit.e5eed63a"
  },
  "contractName": "TokenFarm",
  "language": "Solidity",
  "natspec": {
    "kind": "dev",
    "methods": {
      "owner()": {
        "details": "Returns the address of the current owner."
      },
      "renounceOwnership()": {
        "details": "Leaves the contract without owner. It will not be possible to call `onlyOwner` functions anymore. Can only be called by the current owner. NOTE: Renouncing ownership will leave the contract without an owner, thereby removing any functionality that is only available to the owner."
      },
      "transferOwnership(address)": {
        "details": "Transfers ownership of the contract to a new account (`newOwner`). Can only be called by the current owner."
      }
    },
    "version": 1
  },
  "opcodes": "PUSH1 0x80 PUSH1 0x40 MSTORE CALLVALUE DUP1 ISZERO PUSH2 0x10 JUMPI PUSH1 0x0 DUP1 REVERT JUMPDEST POP PUSH1 0x4 CALLDATASIZE LT PUSH2 0x121 JUMPI PUSH1 0x0 CALLDATALOAD PUSH1 0xE0 SHR DUP1 PUSH4 0x657D396C GT PUSH2 0xAD JUMPI DUP1 PUSH4 0xB83E0234 GT PUSH2 0x71 JUMPI DUP1 PUSH4 0xB83E0234 EQ PUSH2 0x269 JUMPI DUP1 PUSH4 0xDD5B8467 EQ PUSH2 0x289 JUMPI DUP1 PUSH4 0xF1C5D6C2 EQ PUSH2 0x2AC JUMPI DUP1 PUSH4 0xF2FDE38B EQ PUSH2 0x2D4 JUMPI DUP1 PUSH4 0xFD5E6DD1 EQ PUSH2 0x2E7 JUMPI PUSH1 0x0 DUP1 REVERT JUMPDEST DUP1 PUSH4 0x657D396C EQ PUSH2 0x1FF JUMPI DUP1 PUSH4 0x715018A6 EQ PUSH2 0x22A JUMPI DUP1 PUSH4 0x877DD39D EQ PUSH2 0x232 JUMPI DUP1 PUSH4 0x8DA5CB5B EQ PUSH2 0x245 JUMPI DUP1 PUSH4 0xAF3F5E22 EQ PUSH2 0x256 JUMPI PUSH1 0x0 DUP1 REVERT JUMPDEST DUP1 PUSH4 0x27927B3E GT PUSH2 0xF4 JUMPI DUP1 PUSH4 0x27927B3E EQ PUSH2 0x17D JUMPI DUP1 PUSH4 0x2D1AD8B8 EQ PUSH2 0x1BE JUMPI DUP1 PUSH4 0x5E5F2E26 EQ PUSH2 0x1D1 JUMPI DUP1 PUSH4 0x5EB186F8 EQ PUSH2 0x1E4 JUMPI DUP1 PUSH4 0x60AB5852 EQ PUSH2 0x1F7 JUMPI PUSH1 0x0 DUP1 REVERT JUMPDEST DUP1 PUSH4 0xBEA440D EQ PUSH2 0x126 JUMPI DUP1 PUSH4 0x171E44EA EQ PUSH2 0x13B JUMPI DUP1 PUSH4 0x1F7B6D32 EQ PUSH2 0x14E JUMPI DUP1 PUSH4 0x276B11DA EQ PUSH2 0x16A JUMPI JUMPDEST PUSH1 0x0 DUP1 REVERT JUMPDEST PUSH2 0x139 PUSH2 0x134 CALLDATASIZE PUSH1 0x4 PUSH2 0xCF8 JUMP JUMPDEST PUSH2 0x2FA JUMP JUMPDEST STOP JUMPDEST PUSH2 0x139 PUSH2 0x149 CALLDATASIZE PUSH1 0x4 PUSH2 0xD24 JUMP JUMPDEST PUSH2 0x535 JUMP JUMPDEST PUSH2 0x157 PUSH1 0x2 SLOAD DUP2 JUMP JUMPDEST PUSH1 0x40 MLOAD SWAP1 DUP2 MSTORE PUSH1 0x20 ADD JUMPDEST PUSH1 0x40 MLOAD DUP1 SWAP2 SUB SWAP1 RETURN JUMPDEST PUSH2 0x157 PUSH2 0x178 CALLDATASIZE PUSH1 0x4 PUSH2 0xD46 JUMP JUMPDEST PUSH2 0x5B0 JUMP JUMPDEST PUSH2 0x1A6 PUSH2 0x18B CALLDATASIZE PUSH1 0x4 PUSH2 0xD24 JUMP JUMPDEST PUSH1 0x5 PUSH1 0x20 MSTORE PUSH1 0x0 SWAP1 DUP2 MSTORE PUSH1 0x40 SWAP1 KECCAK256 SLOAD PUSH1 0x1 PUSH1 0x1 PUSH1 0xA0 SHL SUB AND DUP2 JUMP JUMPDEST PUSH1 0x40 MLOAD PUSH1 0x1 PUSH1 0x1 PUSH1 0xA0 SHL SUB SWAP1 SWAP2 AND DUP2 MSTORE PUSH1 0x20 ADD PUSH2 0x161 JUMP JUMPDEST PUSH2 0x139 PUSH2 0x1CC CALLDATASIZE PUSH1 0x4 PUSH2 0xD24 JUMP JUMPDEST PUSH2 0x637 JUMP JUMPDEST PUSH2 0x1A6 PUSH2 0x1DF CALLDATASIZE PUSH1 0x4 PUSH2 0xD70 JUMP JUMPDEST PUSH2 0x770 JUMP JUMPDEST PUSH1 0x7 SLOAD PUSH2 0x1A6 SWAP1 PUSH1 0x1 PUSH1 0x1 PUSH1 0xA0 SHL SUB AND DUP2 JUMP JUMPDEST PUSH2 0x139 PUSH2 0x79A JUMP JUMPDEST PUSH2 0x157 PUSH2 0x20D CALLDATASIZE PUSH1 0x4 PUSH2 0xD46 JUMP JUMPDEST PUSH1 0x3 PUSH1 0x20 SWAP1 DUP2 MSTORE PUSH1 0x0 SWAP3 DUP4 MSTORE PUSH1 0x40 DUP1 DUP5 KECCAK256 SWAP1 SWAP2 MSTORE SWAP1 DUP3 MSTORE SWAP1 KECCAK256 SLOAD DUP2 JUMP JUMPDEST PUSH2 0x139 PUSH2 0x8A6 JUMP JUMPDEST PUSH2 0x139 PUSH2 0x240 CALLDATASIZE PUSH1 0x4 PUSH2 0xD46 JUMP JUMPDEST PUSH2 0x8DC JUMP JUMPDEST PUSH1 0x0 SLOAD PUSH1 0x1 PUSH1 0x1 PUSH1 0xA0 SHL SUB AND PUSH2 0x1A6 JUMP JUMPDEST PUSH2 0x157 PUSH2 0x264 CALLDATASIZE PUSH1 0x4 PUSH2 0xD24 JUMP JUMPDEST PUSH2 0x934 JUMP JUMPDEST PUSH2 0x157 PUSH2 0x277 CALLDATASIZE PUSH1 0x4 PUSH2 0xD24 JUMP JUMPDEST PUSH1 0x4 PUSH1 0x20 MSTORE PUSH1 0x0 SWAP1 DUP2 MSTORE PUSH1 0x40 SWAP1 KECCAK256 SLOAD DUP2 JUMP JUMPDEST PUSH2 0x29C PUSH2 0x297 CALLDATASIZE PUSH1 0x4 PUSH2 0xD24 JUMP JUMPDEST PUSH2 0x9F0 JUMP JUMPDEST PUSH1 0x40 MLOAD SWAP1 ISZERO ISZERO DUP2 MSTORE PUSH1 0x20 ADD PUSH2 0x161 JUMP JUMPDEST PUSH2 0x2BF PUSH2 0x2BA CALLDATASIZE PUSH1 0x4 PUSH2 0xD24 JUMP JUMPDEST PUSH2 0xA5A JUMP JUMPDEST PUSH1 0x40 DUP1 MLOAD SWAP3 DUP4 MSTORE PUSH1 0x20 DUP4 ADD SWAP2 SWAP1 SWAP2 MSTORE ADD PUSH2 0x161 JUMP JUMPDEST PUSH2 0x139 PUSH2 0x2E2 CALLDATASIZE PUSH1 0x4 PUSH2 0xD24 JUMP JUMPDEST PUSH2 0xB79 JUMP JUMPDEST PUSH2 0x1A6 PUSH2 0x2F5 CALLDATASIZE PUSH1 0x4 PUSH2 0xD70 JUMP JUMPDEST PUSH2 0xC11 JUMP JUMPDEST PUSH1 0x0 DUP3 GT PUSH2 0x34F JUMPI PUSH1 0x40 MLOAD PUSH3 0x461BCD PUSH1 0xE5 SHL DUP2 MSTORE PUSH1 0x20 PUSH1 0x4 DUP3 ADD MSTORE PUSH1 0x1A PUSH1 0x24 DUP3 ADD MSTORE PUSH32 0x416D6F756E74206D757374206265206D6F7265207468616E2030000000000000 PUSH1 0x44 DUP3 ADD MSTORE PUSH1 0x64 ADD JUMPDEST PUSH1 0x40 MLOAD DUP1 SWAP2 SUB SWAP1 REVERT JUMPDEST PUSH2 0x358 DUP2 PUSH2 0x9F0 JUMP JUMPDEST PUSH2 0x3A4 JUMPI PUSH1 0x40 MLOAD PUSH3 0x461BCD PUSH1 0xE5 SHL DUP2 MSTORE PUSH1 0x20 PUSH1 0x4 DUP3 ADD MSTORE PUSH1 0x1E PUSH1 0x24 DUP3 ADD MSTORE PUSH32 0x546F6B656E2069732063757272656E746C79206E6F7420616C6C6F7765640000 PUSH1 0x44 DUP3 ADD MSTORE PUSH1 0x64 ADD PUSH2 0x346 JUMP JUMPDEST PUSH2 0x3AD DUP2 PUSH2 0x9F0 JUMP JUMPDEST PUSH2 0x3F9 JUMPI PUSH1 0x40 MLOAD PUSH3 0x461BCD PUSH1 0xE5 SHL DUP2 MSTORE PUSH1 0x20 PUSH1 0x4 DUP3 ADD MSTORE PUSH1 0x1E PUSH1 0x24 DUP3 ADD MSTORE PUSH32 0x546F6B656E2069732063757272656E746C79206E6F7420616C6C6F7765640000 PUSH1 0x44 DUP3 ADD MSTORE PUSH1 0x64 ADD PUSH2 0x346 JUMP JUMPDEST PUSH1 0x40 MLOAD PUSH4 0x23B872DD PUSH1 0xE0 SHL DUP2 MSTORE CALLER PUSH1 0x4 DUP3 ADD MSTORE ADDRESS PUSH1 0x24 DUP3 ADD MSTORE PUSH1 0x44 DUP2 ADD DUP4 SWAP1 MSTORE PUSH1 0x1 PUSH1 0x1 PUSH1 0xA0 SHL SUB DUP3 AND SWAP1 PUSH4 0x23B872DD SWAP1 PUSH1 0x64 ADD PUSH1 0x20 PUSH1 0x40 MLOAD DUP1 DUP4 SUB DUP2 PUSH1 0x0 DUP8 DUP1 EXTCODESIZE ISZERO DUP1 ISZERO PUSH2 0x447 JUMPI PUSH1 0x0 DUP1 REVERT JUMPDEST POP GAS CALL ISZERO DUP1 ISZERO PUSH2 0x45B JUMPI RETURNDATASIZE PUSH1 0x0 DUP1 RETURNDATACOPY RETURNDATASIZE PUSH1 0x0 REVERT JUMPDEST POP POP POP POP PUSH1 0x40 MLOAD RETURNDATASIZE PUSH1 0x1F NOT PUSH1 0x1F DUP3 ADD AND DUP3 ADD DUP1 PUSH1 0x40 MSTORE POP DUP2 ADD SWAP1 PUSH2 0x47F SWAP2 SWAP1 PUSH2 0xD89 JUMP JUMPDEST POP PUSH2 0x48A CALLER DUP3 PUSH2 0xC21 JUMP JUMPDEST PUSH1 0x1 PUSH1 0x1 PUSH1 0xA0 SHL SUB DUP2 AND PUSH1 0x0 SWAP1 DUP2 MSTORE PUSH1 0x3 PUSH1 0x20 SWAP1 DUP2 MSTORE PUSH1 0x40 DUP1 DUP4 KECCAK256 CALLER DUP5 MSTORE SWAP1 SWAP2 MSTORE SWAP1 KECCAK256 SLOAD PUSH2 0x4B9 SWAP1 DUP4 SWAP1 PUSH2 0xDC1 JUMP JUMPDEST PUSH1 0x1 PUSH1 0x1 PUSH1 0xA0 SHL SUB DUP3 AND PUSH1 0x0 SWAP1 DUP2 MSTORE PUSH1 0x3 PUSH1 0x20 SWAP1 DUP2 MSTORE PUSH1 0x40 DUP1 DUP4 KECCAK256 CALLER DUP5 MSTORE DUP3 MSTORE DUP1 DUP4 KECCAK256 SWAP4 SWAP1 SWAP4 SSTORE PUSH1 0x4 SWAP1 MSTORE KECCAK256 SLOAD PUSH1 0x1 EQ ISZERO PUSH2 0x531 JUMPI PUSH1 0x6 DUP1 SLOAD PUSH1 0x1 DUP2 ADD DUP3 SSTORE PUSH1 0x0 SWAP2 SWAP1 SWAP2 MSTORE PUSH32 0xF652222313E28459528D920B65115C16C04F3EFC82AAEDC97BE59F3F377C0D3F ADD DUP1 SLOAD PUSH1 0x1 PUSH1 0x1 PUSH1 0xA0 SHL SUB NOT AND CALLER OR SWAP1 SSTORE JUMPDEST POP POP JUMP JUMPDEST PUSH1 0x0 SLOAD PUSH1 0x1 PUSH1 0x1 PUSH1 0xA0 SHL SUB AND CALLER EQ PUSH2 0x55F JUMPI PUSH1 0x40 MLOAD PUSH3 0x461BCD PUSH1 0xE5 SHL DUP2 MSTORE PUSH1 0x4 ADD PUSH2 0x346 SWAP1 PUSH2 0xDD9 JUMP JUMPDEST PUSH1 0x1 DUP1 SLOAD DUP1 DUP3 ADD DUP3 SSTORE PUSH1 0x0 SWAP2 SWAP1 SWAP2 MSTORE PUSH32 0xB10E2D527612073B26EECDFD717E6A320CF44B4AFAC2B0732D9FCBE2B7FA0CF6 ADD DUP1 SLOAD PUSH1 0x1 PUSH1 0x1 PUSH1 0xA0 SHL SUB NOT AND PUSH1 0x1 PUSH1 0x1 PUSH1 0xA0 SHL SUB SWAP3 SWAP1 SWAP3 AND SWAP2 SWAP1 SWAP2 OR SWAP1 SSTORE JUMP JUMPDEST PUSH1 0x1 PUSH1 0x1 PUSH1 0xA0 SHL SUB DUP3 AND PUSH1 0x0 SWAP1 DUP2 MSTORE PUSH1 0x4 PUSH1 0x20 MSTORE PUSH1 0x40 DUP2 KECCAK256 SLOAD PUSH2 0x5D5 JUMPI POP PUSH1 0x0 PUSH2 0x631 JUMP JUMPDEST PUSH1 0x0 DUP1 PUSH2 0x5E1 DUP5 PUSH2 0xA5A JUMP JUMPDEST SWAP1 SWAP3 POP SWAP1 POP PUSH2 0x5F1 DUP2 PUSH1 0xA PUSH2 0xEF2 JUMP JUMPDEST PUSH1 0x1 PUSH1 0x1 PUSH1 0xA0 SHL SUB DUP1 DUP7 AND PUSH1 0x0 SWAP1 DUP2 MSTORE PUSH1 0x3 PUSH1 0x20 SWAP1 DUP2 MSTORE PUSH1 0x40 DUP1 DUP4 KECCAK256 SWAP4 DUP11 AND DUP4 MSTORE SWAP3 SWAP1 MSTORE KECCAK256 SLOAD PUSH2 0x622 SWAP1 DUP5 SWAP1 PUSH2 0xEFE JUMP JUMPDEST PUSH2 0x62C SWAP2 SWAP1 PUSH2 0xF1D JUMP JUMPDEST SWAP3 POP POP POP JUMPDEST SWAP3 SWAP2 POP POP JUMP JUMPDEST PUSH1 0x1 PUSH1 0x1 PUSH1 0xA0 SHL SUB DUP2 AND PUSH1 0x0 SWAP1 DUP2 MSTORE PUSH1 0x3 PUSH1 0x20 SWAP1 DUP2 MSTORE PUSH1 0x40 DUP1 DUP4 KECCAK256 CALLER DUP5 MSTORE SWAP1 SWAP2 MSTORE SWAP1 KECCAK256 SLOAD DUP1 PUSH2 0x6A8 JUMPI PUSH1 0x40 MLOAD PUSH3 0x461BCD PUSH1 0xE5 SHL DUP2 MSTORE PUSH1 0x20 PUSH1 0x4 DUP3 ADD MSTORE PUSH1 0x1B PUSH1 0x24 DUP3 ADD MSTORE PUSH32 0x5374616B696E672062616C616E63652063616E6E6F7420626520300000000000 PUSH1 0x44 DUP3 ADD MSTORE PUSH1 0x64 ADD PUSH2 0x346 JUMP JUMPDEST PUSH1 0x1 PUSH1 0x1 PUSH1 0xA0 SHL SUB DUP3 AND PUSH1 0x0 DUP2 DUP2 MSTORE PUSH1 0x3 PUSH1 0x20 SWAP1 DUP2 MSTORE PUSH1 0x40 DUP1 DUP4 KECCAK256 CALLER DUP1 DUP6 MSTORE SWAP3 MSTORE DUP1 DUP4 KECCAK256 SWAP3 SWAP1 SWAP3 SSTORE SWAP1 MLOAD PUSH4 0xA9059CBB PUSH1 0xE0 SHL DUP2 MSTORE PUSH1 0x4 DUP2 ADD SWAP2 SWAP1 SWAP2 MSTORE PUSH1 0x24 DUP2 ADD DUP4 SWAP1 MSTORE PUSH4 0xA9059CBB SWAP1 PUSH1 0x44 ADD PUSH1 0x20 PUSH1 0x40 MLOAD DUP1 DUP4 SUB DUP2 PUSH1 0x0 DUP8 DUP1 EXTCODESIZE ISZERO DUP1 ISZERO PUSH2 0x70E JUMPI PUSH1 0x0 DUP1 REVERT JUMPDEST POP GAS CALL ISZERO DUP1 ISZERO PUSH2 0x722 JUMPI RETURNDATASIZE PUSH1 0x0 DUP1 RETURNDATACOPY RETURNDATASIZE PUSH1 0x0 REVERT JUMPDEST POP POP POP POP PUSH1 0x40 MLOAD RETURNDATASIZE PUSH1 0x1F NOT PUSH1 0x1F DUP3 ADD AND DUP3 ADD DUP1 PUSH1 0x40 MSTORE POP DUP2 ADD SWAP1 PUSH2 0x746 SWAP2 SWAP1 PUSH2 0xD89 JUMP JUMPDEST POP CALLER PUSH1 0x0 SWAP1 DUP2 MSTORE PUSH1 0x4 PUSH1 0x20 MSTORE PUSH1 0x40 DUP2 KECCAK256 DUP1 SLOAD PUSH1 0x1 SWAP3 SWAP1 PUSH2 0x767 SWAP1 DUP5 SWAP1 PUSH2 0xF3F JUMP JUMPDEST SWAP1 SWAP2 SSTORE POP POP POP POP JUMP JUMPDEST PUSH1 0x1 DUP2 DUP2 SLOAD DUP2 LT PUSH2 0x780 JUMPI PUSH1 0x0 DUP1 REVERT JUMPDEST PUSH1 0x0 SWAP2 DUP3 MSTORE PUSH1 0x20 SWAP1 SWAP2 KECCAK256 ADD SLOAD PUSH1 0x1 PUSH1 0x1 PUSH1 0xA0 SHL SUB AND SWAP1 POP DUP2 JUMP JUMPDEST PUSH1 0x0 SLOAD PUSH1 0x1 PUSH1 0x1 PUSH1 0xA0 SHL SUB AND CALLER EQ PUSH2 0x7C4 JUMPI PUSH1 0x40 MLOAD PUSH3 0x461BCD PUSH1 0xE5 SHL DUP2 MSTORE PUSH1 0x4 ADD PUSH2 0x346 SWAP1 PUSH2 0xDD9 JUMP JUMPDEST PUSH1 0x0 JUMPDEST PUSH1 0x6 SLOAD DUP2 LT ISZERO PUSH2 0x8A3 JUMPI PUSH1 0x0 PUSH1 0x6 DUP3 DUP2 SLOAD DUP2 LT PUSH2 0x7E6 JUMPI PUSH2 0x7E6 PUSH2 0xF56 JUMP JUMPDEST PUSH1 0x0 SWAP2 DUP3 MSTORE PUSH1 0x20 DUP3 KECCAK256 ADD SLOAD PUSH1 0x1 PUSH1 0x1 PUSH1 0xA0 SHL SUB AND SWAP2 POP PUSH2 0x805 DUP3 PUSH2 0x934 JUMP JUMPDEST PUSH1 0x7 SLOAD PUSH1 0x40 MLOAD PUSH4 0xA9059CBB PUSH1 0xE0 SHL DUP2 MSTORE PUSH1 0x1 PUSH1 0x1 PUSH1 0xA0 SHL SUB DUP6 DUP2 AND PUSH1 0x4 DUP4 ADD MSTORE PUSH1 0x24 DUP3 ADD DUP5 SWAP1 MSTORE SWAP3 SWAP4 POP SWAP2 AND SWAP1 PUSH4 0xA9059CBB SWAP1 PUSH1 0x44 ADD PUSH1 0x20 PUSH1 0x40 MLOAD DUP1 DUP4 SUB DUP2 PUSH1 0x0 DUP8 DUP1 EXTCODESIZE ISZERO DUP1 ISZERO PUSH2 0x855 JUMPI PUSH1 0x0 DUP1 REVERT JUMPDEST POP GAS CALL ISZERO DUP1 ISZERO PUSH2 0x869 JUMPI RETURNDATASIZE PUSH1 0x0 DUP1 RETURNDATACOPY RETURNDATASIZE PUSH1 0x0 REVERT JUMPDEST POP POP POP POP PUSH1 0x40 MLOAD RETURNDATASIZE PUSH1 0x1F NOT PUSH1 0x1F DUP3 ADD AND DUP3 ADD DUP1 PUSH1 0x40 MSTORE POP DUP2 ADD SWAP1 PUSH2 0x88D SWAP2 SWAP1 PUSH2 0xD89 JUMP JUMPDEST POP POP POP DUP1 DUP1 PUSH2 0x89B SWAP1 PUSH2 0xF6C JUMP JUMPDEST SWAP2 POP POP PUSH2 0x7C7 JUMP JUMPDEST POP JUMP JUMPDEST PUSH1 0x0 SLOAD PUSH1 0x1 PUSH1 0x1 PUSH1 0xA0 SHL SUB AND CALLER EQ PUSH2 0x8D0 JUMPI PUSH1 0x40 MLOAD PUSH3 0x461BCD PUSH1 0xE5 SHL DUP2 MSTORE PUSH1 0x4 ADD PUSH2 0x346 SWAP1 PUSH2 0xDD9 JUMP JUMPDEST PUSH2 0x8DA PUSH1 0x0 PUSH2 0xC8C JUMP JUMPDEST JUMP JUMPDEST PUSH1 0x0 SLOAD PUSH1 0x1 PUSH1 0x1 PUSH1 0xA0 SHL SUB AND CALLER EQ PUSH2 0x906 JUMPI PUSH1 0x40 MLOAD PUSH3 0x461BCD PUSH1 0xE5 SHL DUP2 MSTORE PUSH1 0x4 ADD PUSH2 0x346 SWAP1 PUSH2 0xDD9 JUMP JUMPDEST PUSH1 0x1 PUSH1 0x1 PUSH1 0xA0 SHL SUB SWAP2 DUP3 AND PUSH1 0x0 SWAP1 DUP2 MSTORE PUSH1 0x5 PUSH1 0x20 MSTORE PUSH1 0x40 SWAP1 KECCAK256 DUP1 SLOAD PUSH1 0x1 PUSH1 0x1 PUSH1 0xA0 SHL SUB NOT AND SWAP2 SWAP1 SWAP3 AND OR SWAP1 SSTORE JUMP JUMPDEST PUSH1 0x1 PUSH1 0x1 PUSH1 0xA0 SHL SUB DUP2 AND PUSH1 0x0 SWAP1 DUP2 MSTORE PUSH1 0x4 PUSH1 0x20 MSTORE PUSH1 0x40 DUP2 KECCAK256 SLOAD PUSH2 0x98C JUMPI PUSH1 0x40 MLOAD PUSH3 0x461BCD PUSH1 0xE5 SHL DUP2 MSTORE PUSH1 0x20 PUSH1 0x4 DUP3 ADD MSTORE PUSH1 0x10 PUSH1 0x24 DUP3 ADD MSTORE PUSH16 0x139BC81D1BDAD95B9CC81CDD185AD959 PUSH1 0x82 SHL PUSH1 0x44 DUP3 ADD MSTORE PUSH1 0x64 ADD PUSH2 0x346 JUMP JUMPDEST PUSH1 0x0 DUP1 JUMPDEST PUSH1 0x1 SLOAD DUP2 LT ISZERO PUSH2 0x9E9 JUMPI PUSH2 0x9CB DUP5 PUSH1 0x1 DUP4 DUP2 SLOAD DUP2 LT PUSH2 0x9B1 JUMPI PUSH2 0x9B1 PUSH2 0xF56 JUMP JUMPDEST PUSH1 0x0 SWAP2 DUP3 MSTORE PUSH1 0x20 SWAP1 SWAP2 KECCAK256 ADD SLOAD PUSH1 0x1 PUSH1 0x1 PUSH1 0xA0 SHL SUB AND PUSH2 0x5B0 JUMP JUMPDEST PUSH2 0x9D5 SWAP1 DUP4 PUSH2 0xDC1 JUMP JUMPDEST SWAP2 POP DUP1 PUSH2 0x9E1 DUP2 PUSH2 0xF6C JUMP JUMPDEST SWAP2 POP POP PUSH2 0x990 JUMP JUMPDEST POP SWAP3 SWAP2 POP POP JUMP JUMPDEST PUSH1 0x0 DUP1 JUMPDEST PUSH1 0x1 SLOAD DUP2 LT ISZERO PUSH2 0xA51 JUMPI DUP3 PUSH1 0x1 PUSH1 0x1 PUSH1 0xA0 SHL SUB AND PUSH1 0x1 DUP3 DUP2 SLOAD DUP2 LT PUSH2 0xA1B JUMPI PUSH2 0xA1B PUSH2 0xF56 JUMP JUMPDEST PUSH1 0x0 SWAP2 DUP3 MSTORE PUSH1 0x20 SWAP1 SWAP2 KECCAK256 ADD SLOAD PUSH1 0x1 PUSH1 0x1 PUSH1 0xA0 SHL SUB AND EQ ISZERO PUSH2 0xA3F JUMPI POP PUSH1 0x1 SWAP3 SWAP2 POP POP JUMP JUMPDEST DUP1 PUSH2 0xA49 DUP2 PUSH2 0xF6C JUMP JUMPDEST SWAP2 POP POP PUSH2 0x9F4 JUMP JUMPDEST POP PUSH1 0x0 SWAP3 SWAP2 POP POP JUMP JUMPDEST PUSH1 0x1 PUSH1 0x1 PUSH1 0xA0 SHL SUB DUP1 DUP3 AND PUSH1 0x0 SWAP1 DUP2 MSTORE PUSH1 0x5 PUSH1 0x20 MSTORE PUSH1 0x40 DUP1 DUP3 KECCAK256 SLOAD DUP2 MLOAD PUSH4 0x3FABE5A3 PUSH1 0xE2 SHL DUP2 MSTORE SWAP2 MLOAD SWAP3 SWAP4 DUP5 SWAP4 SWAP2 AND SWAP2 DUP3 SWAP2 DUP5 SWAP2 DUP4 SWAP2 PUSH4 0xFEAF968C SWAP2 PUSH1 0x4 DUP1 DUP3 ADD SWAP3 PUSH1 0xA0 SWAP3 SWAP1 SWAP2 SWAP1 DUP3 SWAP1 SUB ADD DUP2 DUP7 DUP1 EXTCODESIZE ISZERO DUP1 ISZERO PUSH2 0xAB6 JUMPI PUSH1 0x0 DUP1 REVERT JUMPDEST POP GAS STATICCALL ISZERO DUP1 ISZERO PUSH2 0xACA JUMPI RETURNDATASIZE PUSH1 0x0 DUP1 RETURNDATACOPY RETURNDATASIZE PUSH1 0x0 REVERT JUMPDEST POP POP POP POP PUSH1 0x40 MLOAD RETURNDATASIZE PUSH1 0x1F NOT PUSH1 0x1F DUP3 ADD AND DUP3 ADD DUP1 PUSH1 0x40 MSTORE POP DUP2 ADD SWAP1 PUSH2 0xAEE SWAP2 SWAP1 PUSH2 0xFA1 JUMP JUMPDEST POP POP POP SWAP2 POP POP PUSH1 0x0 DUP3 PUSH1 0x1 PUSH1 0x1 PUSH1 0xA0 SHL SUB AND PUSH4 0x313CE567 PUSH1 0x40 MLOAD DUP2 PUSH4 0xFFFFFFFF AND PUSH1 0xE0 SHL DUP2 MSTORE PUSH1 0x4 ADD PUSH1 0x20 PUSH1 0x40 MLOAD DUP1 DUP4 SUB DUP2 DUP7 DUP1 EXTCODESIZE ISZERO DUP1 ISZERO PUSH2 0xB2F JUMPI PUSH1 0x0 DUP1 REVERT JUMPDEST POP GAS STATICCALL ISZERO DUP1 ISZERO PUSH2 0xB43 JUMPI RETURNDATASIZE PUSH1 0x0 DUP1 RETURNDATACOPY RETURNDATASIZE PUSH1 0x0 REVERT JUMPDEST POP POP POP POP PUSH1 0x40 MLOAD RETURNDATASIZE PUSH1 0x1F NOT PUSH1 0x1F DUP3 ADD AND DUP3 ADD DUP1 PUSH1 0x40 MSTORE POP DUP2 ADD SWAP1 PUSH2 0xB67 SWAP2 SWAP1 PUSH2 0xFF1 JUMP JUMPDEST SWAP2 SWAP8 PUSH1 0xFF SWAP1 SWAP3 AND SWAP7 POP SWAP1 SWAP5 POP POP POP POP POP JUMP JUMPDEST PUSH1 0x0 SLOAD PUSH1 0x1 PUSH1 0x1 PUSH1 0xA0 SHL SUB AND CALLER EQ PUSH2 0xBA3 JUMPI PUSH1 0x40 MLOAD PUSH3 0x461BCD PUSH1 0xE5 SHL DUP2 MSTORE PUSH1 0x4 ADD PUSH2 0x346 SWAP1 PUSH2 0xDD9 JUMP JUMPDEST PUSH1 0x1 PUSH1 0x1 PUSH1 0xA0 SHL SUB DUP2 AND PUSH2 0xC08 JUMPI PUSH1 0x40 MLOAD PUSH3 0x461BCD PUSH1 0xE5 SHL DUP2 MSTORE PUSH1 0x20 PUSH1 0x4 DUP3 ADD MSTORE PUSH1 0x26 PUSH1 0x24 DUP3 ADD MSTORE PUSH32 0x4F776E61626C653A206E6577206F776E657220697320746865207A65726F2061 PUSH1 0x44 DUP3 ADD MSTORE PUSH6 0x646472657373 PUSH1 0xD0 SHL PUSH1 0x64 DUP3 ADD MSTORE PUSH1 0x84 ADD PUSH2 0x346 JUMP JUMPDEST PUSH2 0x8A3 DUP2 PUSH2 0xC8C JUMP JUMPDEST PUSH1 0x6 DUP2 DUP2 SLOAD DUP2 LT PUSH2 0x780 JUMPI PUSH1 0x0 DUP1 REVERT JUMPDEST PUSH1 0x1 PUSH1 0x1 PUSH1 0xA0 SHL SUB DUP1 DUP3 AND PUSH1 0x0 SWAP1 DUP2 MSTORE PUSH1 0x3 PUSH1 0x20 SWAP1 DUP2 MSTORE PUSH1 0x40 DUP1 DUP4 KECCAK256 SWAP4 DUP7 AND DUP4 MSTORE SWAP3 SWAP1 MSTORE KECCAK256 SLOAD PUSH2 0x531 JUMPI PUSH1 0x1 PUSH1 0x1 PUSH1 0xA0 SHL SUB DUP3 AND PUSH1 0x0 SWAP1 DUP2 MSTORE PUSH1 0x4 PUSH1 0x20 MSTORE PUSH1 0x40 SWAP1 KECCAK256 SLOAD PUSH2 0xC6F SWAP1 PUSH1 0x1 PUSH2 0xDC1 JUMP JUMPDEST PUSH1 0x1 PUSH1 0x1 PUSH1 0xA0 SHL SUB DUP4 AND PUSH1 0x0 SWAP1 DUP2 MSTORE PUSH1 0x4 PUSH1 0x20 MSTORE PUSH1 0x40 SWAP1 KECCAK256 SSTORE POP POP JUMP JUMPDEST PUSH1 0x0 DUP1 SLOAD PUSH1 0x1 PUSH1 0x1 PUSH1 0xA0 SHL SUB DUP4 DUP2 AND PUSH1 0x1 PUSH1 0x1 PUSH1 0xA0 SHL SUB NOT DUP4 AND DUP2 OR DUP5 SSTORE PUSH1 0x40 MLOAD SWAP2 SWAP1 SWAP3 AND SWAP3 DUP4 SWAP2 PUSH32 0x8BE0079C531659141344CD1FD0A4F28419497F9722A3DAAFE3B4186F6B6457E0 SWAP2 SWAP1 LOG3 POP POP JUMP JUMPDEST DUP1 CALLDATALOAD PUSH1 0x1 PUSH1 0x1 PUSH1 0xA0 SHL SUB DUP2 AND DUP2 EQ PUSH2 0xCF3 JUMPI PUSH1 0x0 DUP1 REVERT JUMPDEST SWAP2 SWAP1 POP JUMP JUMPDEST PUSH1 0x0 DUP1 PUSH1 0x40 DUP4 DUP6 SUB SLT ISZERO PUSH2 0xD0B JUMPI PUSH1 0x0 DUP1 REVERT JUMPDEST DUP3 CALLDATALOAD SWAP2 POP PUSH2 0xD1B PUSH1 0x20 DUP5 ADD PUSH2 0xCDC JUMP JUMPDEST SWAP1 POP SWAP3 POP SWAP3 SWAP1 POP JUMP JUMPDEST PUSH1 0x0 PUSH1 0x20 DUP3 DUP5 SUB SLT ISZERO PUSH2 0xD36 JUMPI PUSH1 0x0 DUP1 REVERT JUMPDEST PUSH2 0xD3F DUP3 PUSH2 0xCDC JUMP JUMPDEST SWAP4 SWAP3 POP POP POP JUMP JUMPDEST PUSH1 0x0 DUP1 PUSH1 0x40 DUP4 DUP6 SUB SLT ISZERO PUSH2 0xD59 JUMPI PUSH1 0x0 DUP1 REVERT JUMPDEST PUSH2 0xD62 DUP4 PUSH2 0xCDC JUMP JUMPDEST SWAP2 POP PUSH2 0xD1B PUSH1 0x20 DUP5 ADD PUSH2 0xCDC JUMP JUMPDEST PUSH1 0x0 PUSH1 0x20 DUP3 DUP5 SUB SLT ISZERO PUSH2 0xD82 JUMPI PUSH1 0x0 DUP1 REVERT JUMPDEST POP CALLDATALOAD SWAP2 SWAP1 POP JUMP JUMPDEST PUSH1 0x0 PUSH1 0x20 DUP3 DUP5 SUB SLT ISZERO PUSH2 0xD9B JUMPI PUSH1 0x0 DUP1 REVERT JUMPDEST DUP2 MLOAD DUP1 ISZERO ISZERO DUP2 EQ PUSH2 0xD3F JUMPI PUSH1 0x0 DUP1 REVERT JUMPDEST PUSH4 0x4E487B71 PUSH1 0xE0 SHL PUSH1 0x0 MSTORE PUSH1 0x11 PUSH1 0x4 MSTORE PUSH1 0x24 PUSH1 0x0 REVERT JUMPDEST PUSH1 0x0 DUP3 NOT DUP3 GT ISZERO PUSH2 0xDD4 JUMPI PUSH2 0xDD4 PUSH2 0xDAB JUMP JUMPDEST POP ADD SWAP1 JUMP JUMPDEST PUSH1 0x20 DUP1 DUP3 MSTORE DUP2 DUP2 ADD MSTORE PUSH32 0x4F776E61626C653A2063616C6C6572206973206E6F7420746865206F776E6572 PUSH1 0x40 DUP3 ADD MSTORE PUSH1 0x60 ADD SWAP1 JUMP JUMPDEST PUSH1 0x1 DUP2 DUP2 JUMPDEST DUP1 DUP6 GT ISZERO PUSH2 0xE49 JUMPI DUP2 PUSH1 0x0 NOT DIV DUP3 GT ISZERO PUSH2 0xE2F JUMPI PUSH2 0xE2F PUSH2 0xDAB JUMP JUMPDEST DUP1 DUP6 AND ISZERO PUSH2 0xE3C JUMPI SWAP2 DUP2 MUL SWAP2 JUMPDEST SWAP4 DUP5 SHR SWAP4 SWAP1 DUP1 MUL SWAP1 PUSH2 0xE13 JUMP JUMPDEST POP SWAP3 POP SWAP3 SWAP1 POP JUMP JUMPDEST PUSH1 0x0 DUP3 PUSH2 0xE60 JUMPI POP PUSH1 0x1 PUSH2 0x631 JUMP JUMPDEST DUP2 PUSH2 0xE6D JUMPI POP PUSH1 0x0 PUSH2 0x631 JUMP JUMPDEST DUP2 PUSH1 0x1 DUP2 EQ PUSH2 0xE83 JUMPI PUSH1 0x2 DUP2 EQ PUSH2 0xE8D JUMPI PUSH2 0xEA9 JUMP JUMPDEST PUSH1 0x1 SWAP2 POP POP PUSH2 0x631 JUMP JUMPDEST PUSH1 0xFF DUP5 GT ISZERO PUSH2 0xE9E JUMPI PUSH2 0xE9E PUSH2 0xDAB JUMP JUMPDEST POP POP PUSH1 0x1 DUP3 SHL PUSH2 0x631 JUMP JUMPDEST POP PUSH1 0x20 DUP4 LT PUSH2 0x133 DUP4 LT AND PUSH1 0x4E DUP5 LT PUSH1 0xB DUP5 LT AND OR ISZERO PUSH2 0xECC JUMPI POP DUP2 DUP2 EXP PUSH2 0x631 JUMP JUMPDEST PUSH2 0xED6 DUP4 DUP4 PUSH2 0xE0E JUMP JUMPDEST DUP1 PUSH1 0x0 NOT DIV DUP3 GT ISZERO PUSH2 0xEEA JUMPI PUSH2 0xEEA PUSH2 0xDAB JUMP JUMPDEST MUL SWAP4 SWAP3 POP POP POP JUMP JUMPDEST PUSH1 0x0 PUSH2 0xD3F DUP4 DUP4 PUSH2 0xE51 JUMP JUMPDEST PUSH1 0x0 DUP2 PUSH1 0x0 NOT DIV DUP4 GT DUP3 ISZERO ISZERO AND ISZERO PUSH2 0xF18 JUMPI PUSH2 0xF18 PUSH2 0xDAB JUMP JUMPDEST POP MUL SWAP1 JUMP JUMPDEST PUSH1 0x0 DUP3 PUSH2 0xF3A JUMPI PUSH4 0x4E487B71 PUSH1 0xE0 SHL PUSH1 0x0 MSTORE PUSH1 0x12 PUSH1 0x4 MSTORE PUSH1 0x24 PUSH1 0x0 REVERT JUMPDEST POP DIV SWAP1 JUMP JUMPDEST PUSH1 0x0 DUP3 DUP3 LT ISZERO PUSH2 0xF51 JUMPI PUSH2 0xF51 PUSH2 0xDAB JUMP JUMPDEST POP SUB SWAP1 JUMP JUMPDEST PUSH4 0x4E487B71 PUSH1 0xE0 SHL PUSH1 0x0 MSTORE PUSH1 0x32 PUSH1 0x4 MSTORE PUSH1 0x24 PUSH1 0x0 REVERT JUMPDEST PUSH1 0x0 PUSH1 0x0 NOT DUP3 EQ ISZERO PUSH2 0xF80 JUMPI PUSH2 0xF80 PUSH2 0xDAB JUMP JUMPDEST POP PUSH1 0x1 ADD SWAP1 JUMP JUMPDEST DUP1 MLOAD PUSH10 0xFFFFFFFFFFFFFFFFFFFF DUP2 AND DUP2 EQ PUSH2 0xCF3 JUMPI PUSH1 0x0 DUP1 REVERT JUMPDEST PUSH1 0x0 DUP1 PUSH1 0x0 DUP1 PUSH1 0x0 PUSH1 0xA0 DUP7 DUP9 SUB SLT ISZERO PUSH2 0xFB9 JUMPI PUSH1 0x0 DUP1 REVERT JUMPDEST PUSH2 0xFC2 DUP7 PUSH2 0xF87 JUMP JUMPDEST SWAP5 POP PUSH1 0x20 DUP7 ADD MLOAD SWAP4 POP PUSH1 0x40 DUP7 ADD MLOAD SWAP3 POP PUSH1 0x60 DUP7 ADD MLOAD SWAP2 POP PUSH2 0xFE5 PUSH1 0x80 DUP8 ADD PUSH2 0xF87 JUMP JUMPDEST SWAP1 POP SWAP3 SWAP6 POP SWAP3 SWAP6 SWAP1 SWAP4 POP JUMP JUMPDEST PUSH1 0x0 PUSH1 0x20 DUP3 DUP5 SUB SLT ISZERO PUSH2 0x1003 JUMPI PUSH1 0x0 DUP1 REVERT JUMPDEST DUP2 MLOAD PUSH1 0xFF DUP2 AND DUP2 EQ PUSH2 0xD3F JUMPI PUSH1 0x0 DUP1 REVERT INVALID LOG2 PUSH5 0x6970667358 0x22 SLT KECCAK256 PUSH23 0xB678885DABA43CB57237FA45447AEED9D5D61E4C426BDC SAR SWAP3 CALLDATALOAD 0xD7 0xBC 0xAF 0xD8 LOG0 PUSH5 0x736F6C6343 STOP ADDMOD MULMOD STOP CALLER ",
  "sha1": "616a4f27119b2202d9dd4aef9d248d1ad8d3f050",
  "source": "//stakeTokens - Done!\n//unstakeTokens\n//issue Tokens - Done!\n//add Allowed Tokens - Done!\n//getValue - Done!\n//SPDX-License-Identifier: MIT\npragma solidity ^0.8.0;\n\nimport \"@openzeppelin/contracts/access/Ownable.sol\";\nimport \"@openzeppelin/contracts/token/ERC20/IERC20.sol\";\nimport \"@chainlink/contracts/src/v0.8/interfaces/AggregatorV3Interface.sol\";\n\ncontract TokenFarm is Ownable{\n\n    address[] public allowedTokens;\n    uint256 public length = allowedTokens.length;\n    mapping(address => mapping(address => uint256)) public stakeBalance;\n    mapping(address => uint256) public uniqueTokensStaked;\n    mapping(address => address) public tokenPriceFeedMapping;\n    address[] public stakers;\n    IERC20 public dappToken;\n\n    constructor(address _dappTokenAddress) { dappToken = IERC20(_dappTokenAddress); }\n\n    function setPriceFeedContract(address _token, address _priceFeed) public onlyOwner{\n        tokenPriceFeedMapping[_token] = _priceFeed;\n    }\n\n    function stakeTokens(uint256 _amount, address _token) public {\n\n        require(_amount>0, \"Amount must be more than 0\");\n        require(tokenIsAllowed(_token), \"Token is currently not allowed\");\n        require(tokenIsAllowed(_token), \"Token is currently not allowed\");\n\n        IERC20(_token).transferFrom(msg.sender, address(this), _amount);\n        updateUniqueTokensStaked(msg.sender, _token);\n        stakeBalance[_token][msg.sender] = stakeBalance[_token][msg.sender] + _amount;\n\n        if (uniqueTokensStaked[msg.sender]==1){\n            stakers.push(msg.sender);\n        }\n    }\n\n//    possibility of reentrancy\n    function unstakeTokens(address _token) public{\n        uint256 balance = stakeBalance[_token][msg.sender];\n        require(balance>0, \"Staking balance cannot be 0\");\n        stakeBalance[_token][msg.sender] = 0;\n        IERC20(_token).transfer(msg.sender, balance);\n        uniqueTokensStaked[msg.sender] -= 1;\n    }\n\n    function updateUniqueTokensStaked(address _user, address _token) internal{\n        if(stakeBalance[_token][_user] <= 0){\n            uniqueTokensStaked[_user] = uniqueTokensStaked[_user] + 1;\n        }\n    }\n\n    function issueTokens() public onlyOwner{\n//    Issue tokens to all stakers\n        for(uint256 stakersIndex=0; stakersIndex<stakers.length; stakersIndex++){\n            address recipient = stakers[stakersIndex];\n            uint256 userTotalValue = getUserTotalValue(recipient);\n//            send them a token reward based on their total value locked\n            dappToken.transfer(recipient, userTotalValue);\n        }\n    }\n\n    function getUserTotalValue(address _user) public view returns(uint256){\n        require(uniqueTokensStaked[_user]>0, \"No tokens staked\");\n\n        uint256 totalValue = 0;\n\n        for (uint256 allowedTokensIndex=0; allowedTokensIndex<allowedTokens.length;allowedTokensIndex++){\n            totalValue = totalValue + getUserSingleTokenValue(_user, allowedTokens[allowedTokensIndex]);\n        }\n\n        return totalValue;\n    }\n\n    function getUserSingleTokenValue(address _user, address _token) public view returns(uint256) {\n\n        if(uniqueTokensStaked[_user]<=0){\n            return 0;\n        }\n//        price of the token * stakeBalance of the user\n        (uint256 price, uint256 decimals) = getTokenValue(_token);\n        return ((stakeBalance[_token][_user] * price) / (10**decimals));\n    }\n\n    function getTokenValue(address _token) public view returns(uint256, uint256){\n//        priceFeedAddress\n        address priceFeedAddress = tokenPriceFeedMapping[_token];\n        AggregatorV3Interface priceFeed = AggregatorV3Interface(priceFeedAddress);\n        (,int256 price,,,) = priceFeed.latestRoundData();\n        uint256 decimals = uint256(priceFeed.decimals());\n\n        return (uint256(price), decimals);\n    }\n\n    function addAllowedTokens(address _token) public onlyOwner{ allowedTokens.push(_token); }\n\n    function tokenIsAllowed(address _token) public view returns(bool){\n\n        for(uint256 allowedTokensIndex=0; allowedTokensIndex<allowedTokens.length; allowedTokensIndex++){\n            if(allowedTokens[allowedTokensIndex] == _token){\n                return true;\n            }\n        }\n\n        return false;\n    }\n}\n",
  "sourcePath": "contracts/TokenFarm.sol",
  "type": "contract"
}